:020000040800F2
:100000006842002481030008A7F20008A5B7000891
:10001000EDED0008091D0008AD20010800000000FA
:100020000000000000000000000000005D03010867
:10003000293600080000000019FB00085D0A0108CD
:100040009B0300089B0300089B0300089B03000818
:100050009B0300089B0300089B0300089B03000808
:100060009B0300089B0300089B030008D12700089E
:10007000E1270008F12700080128000811280008DE
:1000800021280008312800089B0300088D3A000849
:100090009D3A00089B0300089B0300089B0300088F
:1000A0009B0300089B0300089B0300089B030008B8
:1000B0009B0300089B0300089B0300089B030008A8
:1000C0009B0300089B0300089B03000879000108BC
:1000D0009B0300083D2001085D2001087D200108E8
:1000E0009B0300089B030008000000009B0300081E
:1000F0009B030008A10D01089B030008412800088C
:100100009B0300089B0300089B0300089B03000857
:1001100025130108451301089B0300089B030008F1
:10012000512800086128000871280008812800086B
:10013000912800089B0300089B0300089B0300080C
:1001400000000000000000000000000000000000AF
:100150009B0300089B0300089B0300089D200108E7
:100160009B0300089B0300089B0300089B030008F7
:100170009B0300089B0300089B0300089B030008E7
:100180009B0300089B0300089B0300089B030008D7
:100190009B0300089B0300089B0300089B030008C7
:1001A0009B0300089B0300089B0300089B030008B7
:1001B0009B0300089B0300089B0300089B030008A7
:1001C0009B0300089B0300089B0300089B03000897
:1001D0009B0300089B0300089B0300089B03000887
:1001E0009B0300089B0300089B0300089B03000877
:1001F0009B0300089B0300089B0300089B03000867
:100200009B0300089B0300089B0300089B03000856
:100210009B0300089B0300089B0300089B03000846
:100220009B0300089B0300089B03000800000000DC
:100230009B0300089B030008000000009B030008CC
:100240009B0300089B0300089B0300089B03000816
:100250009B0300089B0300089B0300089B03000806
:100260009B0300089B0300089B0300089B030008F6
:100270009B0300089B0300089B030008000000008C
:100280009B0300089B0300089B030008000000007C
:10029000000000009B03000800F002F800F060F886
:1002A0000AA090E8000C82448344AAF10107DA45D1
:1002B00001D100F055F8AFF2090EBAE80F0013F0C3
:1002C000010F18BFFB1A43F0010318471447010040
:1002D000344701000A444FF0000C10F8013B13F0C2
:1002E000070408BF10F8014B1D1108BF10F8015B8F
:1002F000641E05D010F8016B641E01F8016BF9D182
:1003000013F0080F1EBF10F8014BAD1C0C1B09D1D8
:100310006D1E58BF01F801CBFAD505E014F8016B4A
:1003200001F8016B6D1EF9D59142D6D370470000DC
:100330000023002400250026103A28BF78C1FBD8EE
:10034000520728BF30C148BF0B6070471FB513F07C
:10035000A9FF9DE8030000F015FA1FBD10B510BD00
:1003600000F0A2FA1146FFF7F1FF13F061FE00F072
:10037000C0FA03B4FFF7F2FF03BC00F0F1FA00008B
:100380000948804709480047FEE7FEE7FEE7FEE729
:10039000FEE7FEE7FEE7FEE7FEE7FEE70448054965
:1003A000054A064B70470000490B010899020008F6
:1003B0006836002468420024683E0024683E002419
:1003C00070B5064600F0C2F9056806F10B0020F092
:1003D0000704B4429CBF002070BD2B466A68BAB1C6
:1003E0001068A04210D304F1080188423CBF506855
:1003F000586007D35168101941601168091B0160EA
:1004000058601460101D70BD13465268002AE7D171
:100410002146284600F0A2F90028DED170BD70B553
:100420000D460646041F00F091F9D0F800C0C5B192
:10043000E6B105F10B0020F00703AB423CBF002002
:1004400070BD2068984238BFDCF8042013D3C11A6D
:1004500008292FD3E01840F8041B236000F0C8F9E6
:1004600028E0304600F0C4F9002070BD2846BDE801
:100470007040FFF7A5BF002A18BFA2423CBF9446B8
:100480005268F8D30119914216D111680844984274
:1004900012D3C11A08293CBF2060506808D35168A4
:1004A000E0184160216812681144C91A0160236094
:1004B000CCF80400201D70BD181FFFF781FF050058
:1004C00007D021680A1F211D00F0C1F8201D00F08F
:1004D0008FF9284670BD53EA020C00F069802DE9BF
:1004E000F04B4FF00006002B1FBFB3FA83F503FA61
:1004F00005F424FA05F65E4012BF1643B2FA82F5FF
:1005000002FA05F4C5F120051EBF22FA05FC44EAF3
:100510000C04203556EA044C4FEA144418BF641CFE
:100520004FF000084FF00009904271EB030C39D3F3
:10053000002919BFB1FA81F701FA07F6B0FA80F77E
:1005400000FA07F6C7F120071EBF20FA07FC46EAAB
:100550000C062037B6FBF4FCA7EB0507103F07F0AD
:100560001F0BCBF120060CFA0BFB2CFA06F644BF4E
:10057000B3460026202FA4BF5E464FF0000B5BEA77
:10058000060C08BF4FF0010B19EB0B09ABFB027C0B
:1005900048EB0608C01B06FB02CC0BFB03CC71EB3F
:1005A0000C01C1E70B46024641464846BDE8F08BC8
:1005B00013B54FF000004FF00001AFF30080BDE82D
:1005C0001C407047032A40F2308010F0030C00F00A
:1005D000158011F8013BBCF1020F624498BF11F87D
:1005E00001CB00F8013B38BF11F8013BA2F1040236
:1005F00098BF00F801CB38BF00F8013B11F00303AE
:1006000000F02580083AC0F0088051F8043B083A11
:1006100051F804CBA0E80810F5E7121D5CBF51F8B3
:10062000043B40F8043BAFF30080D20724BF11F82D
:10063000013B11F801CB48BF11F8012B24BF00F892
:10064000013B00F801CB48BF00F8012B704710B503
:10065000203AC0F00B80B1E81850203AA0E81850BA
:10066000B1E81850A0E81850BFF4F5AF5FEA027C7B
:1006700024BFB1E81850A0E8185044BF18C918C0EA
:10068000BDE810405FEA827C24BF51F8043B40F88B
:10069000043B08BF7047D20728BF31F8023B48BF70
:1006A00011F8012B28BF20F8023B48BF00F8012BAE
:1006B00070474FF000020429C0F0128010F0030CC4
:1006C00000F01B80CCF1040CBCF1020F18BF00F845
:1006D000012BA8BF20F8022BA1EB0C0100F00DB8F4
:1006E0005FEAC17C24BF00F8012B00F8012B48BF52
:1006F00000F8012B70474FF0000200B513469446F6
:100700009646203922BFA0E80C50A0E80C50B1F169
:100710002001BFF4F7AF090728BFA0E80C5048BF7D
:100720000CC05DF804EB890028BF40F8042B08BF1B
:10073000704748BF20F8022B11F0804F18BF00F817
:10074000012B7047704770477047000000487047A2
:10075000F0200024704770477047704738B5044652
:100760000A4600206946AFF30080002808BF38BD64
:1007700002460099204600F075F8012038BD01209E
:1007800000F08AB8F8B5AFF30080054600200C46AB
:10079000102000BF0646A819A0420DD9324669466E
:1007A0000020AFF30080070008BF00F075F8009844
:1007B000A04218BF0546C419FFF7C8FF05600746E9
:1007C000F01D20F007004619284600F00AF8B44250
:1007D00008BFF8BDA21B31463868BDE8F84000F0FC
:1007E00041B800210160C0E9011070471020704736
:1007F00070B50446051FFFF7A9FF0068002C14BF61
:10080000446870BD002C18BFAC423CBF20466468F1
:10081000F8D301680A18AA4218BF456003D12A68B4
:1008200005461144016028684119A1421CBF6C6053
:1008300070BD6168696021680844286070BD10B5AA
:1008400000F00CF8006810BD10B5044600F006F882
:10085000046010BD00487047E8200024004870473D
:10086000E8200024034640688C46002818BF8842D0
:100870003CBF03464068F8D318681844884207D044
:100880000CF1030020F00700001D411A521A014626
:10089000081D0A60FFF7ACBF10B500F039F8BDE8DD
:1008A000104000F02FB870477546FFF7D3FFAE46F3
:1008B00005006946534620F00700854618B020B56C
:1008C000FFF76CFDBDE820404FF000064FF0000739
:1008D0004FF000084FF0000B21F00701AC46ACE8E8
:1008E000C009ACE8C009ACE8C009ACE8C0098D4655
:1008F000704710B50446AFF300802046BDE81040B5
:10090000FFF737BD002801D000F02AB8704700007B
:1009100010B5012805D0002103A000F027F8012020
:1009200010BD09A1F8E7000053494752544D454D09
:100930003A204F7574206F662068656170206D6580
:100940006D6F7279000000003A2048656170206D7B
:10095000656D6F727920636F727275707465640073
:1009600001491820ABBEFEE72600020070B505461F
:100970000C460A2000E06D1C00F011F835B1287813
:100980000028F8D102E0641C00F009F814B12078C6
:100990000028F8D1BDE870400A20AFF3008008B508
:1009A00069468DF800000320ABBE08BD10B5034AB0
:1009B000918B9069012206F0A9F910BDB0020024C4
:1009C00010B5034A918B9069002206F09FF910BD83
:1009D000B002002410B5FFF7F3FF802000F06AFD9D
:1009E000552000F067FD552000F064FD5449087063
:1009F000FFF7DCFF9FED530A02F008FDFFF7E0FF71
:100A0000802000F057FD552000F054FD552000F0E7
:100A100051FD4B490870FFF7C9FF9FED4A0A02F0EC
:100A2000F5FCFFF7CDFFB6217E2000F055FDFFF766
:100A3000BDFF9FED450A02F0E9FCFFF7C1FF8020F2
:100A400000F038FD552000F035FD552000F032FD56
:100A50003B490870FFF7AAFF9FED3A0A02F0D6FC67
:100A6000FFF7AEFF802000F025FD552000F022FDAD
:100A7000552000F01FFD32490870FFF797FF9FEDEA
:100A8000310A02F0C3FC2E4800781E2801D0FF2056
:100A900010BD00202D4908704BE0FFF791FF2B4A55
:100AA000127802EB42022A4B1A445178274A1278F4
:100AB00002EB4202985C00F00FFDFFF777FF9FED1D
:100AC000210A02F0A3FCFFF77BFF2049097801EB24
:100AD00041011F4A515C41F0800000F0EBFC5520C1
:100AE00000F0E8FC552000F0E5FC15490870FFF720
:100AF0005DFF9FED140A02F089FC1448007800EBBA
:100B000040001349084440780D49097888420BD0C9
:100B10000E48007800EB40000D49084480780D49EC
:100B2000097808430B49087008480078401C0749B9
:100B30000870064800780628AFDB0020A8E7000010
:100B40003C0300246F12833A0AD7A33D3D030024DF
:100B5000420300243E03002470B52DED048B88B0C1
:100B600004460020069007909FEDFE0AB0EE408AF2
:100B70009FEDFC0AF0EE408A9FEDFA0AB0EE409A33
:100B800002F088FCF84880ED000A00BF02F082FC09
:100B9000F548D0ED000A30EE600AF2EE080AB4EE35
:100BA000E00AF1EE10FA14DD9FEDF00A84ED090A77
:100BB0009FEDEF0A84ED0A0A9FEDEE0A84ED0B0A21
:100BC0009FEDED0A84ED0C0A9FEDEC0A84ED060A18
:100BD0005FE29FEDEB0A02F019FC9FEDE20A84ED63
:100BE0000C0A9FEDE00A84ED090A9FEDDE0A84ED10
:100BF0000A0A9FEDDC0A84ED0B0A002673E1FFF779
:100C0000DFFE922000F056FC062206A9122000F01A
:100C100031FCFFF7CBFE9DF81900000200B29DF8F1
:100C2000181040EA010500EE105AB8EEC00AD54887
:100C3000D0ED000A20EE200A84ED000A9DF81B008A
:100C4000000200B29DF81A1040EA010500EE105AA9
:100C5000B8EEC00ACB48D0ED000A20EE200A84EDA1
:100C6000010A9DF81D00000200B29DF81C1040EA28
:100C7000010500EE105AB8EEC00AC248D0ED000AD5
:100C800020EE200A84ED020AD4ED000A60EEA00AEC
:100C900094ED011AD4ED011A41EE210A94ED021AE5
:100CA000D4ED021A41EE210AB0EE600A12F085FB83
:100CB000B0EE408A94ED0C0A30EE080A84ED0C0A7E
:100CC00000F00EFA082206A9002000F0D3FB00F085
:100CD000FBF99DF818000F2850D19DF81B00000269
:100CE00000B29DF81A1040EA010500EE105AB8EE65
:100CF000C00AA548D0ED000A20EE200A84ED030AC0
:100D000094ED090AD4ED030A30EE200A84ED090AB5
:100D10009DF81D00000200B29DF81C1040EA01057C
:100D200000EE105AB8EEC00A9748D0ED000A20EE47
:100D3000200A84ED040A94ED0A0AD4ED040A30EE88
:100D4000200A84ED0A0A9DF81F00000200B29DF8F7
:100D50001E1040EA010500EE105AB8EEC00A8A489B
:100D6000D0ED000A20EE200A84ED050A94ED0B0A6E
:100D7000D4ED050A30EE200A84ED0B0A06BBF0EE36
:100D8000488AB0EE489A002017E004F10C0101EB0C
:100D9000800191ED000A03A901EB800181ED000AB9
:100DA00004F10C0101EB800191ED000A694601EBB1
:100DB000800181ED000A411CC8B20328E5DB49E04F
:100DC000B4EEE88AF1EE10FA01DDF0EE488AB4EEF6
:100DD000C98AF1EE10FA01D2B0EE489A002037E04D
:100DE00004F10C0101EB800191ED000A03A901EB74
:100DF0008001D1ED000AB4EEE00AF1EE10FA0ADD4E
:100E000004F10C0101EB800191ED000A03A901EB53
:100E1000800181ED000A04F10C0101EB800191EDEC
:100E2000000A694601EB8001D1ED000AB4EEE00A48
:100E3000F1EE10FA0AD204F10C0101EB800191ED00
:100E4000000A694601EB800181ED000A411CC8B22D
:100E50000328C5DB38EEC90A4C4880ED000A0020A3
:100E600012E003A901EB800191ED000A694601EB54
:100E70008001D1ED000A30EE600A454901EB8001A6
:100E800081ED000A411CC8B20328EADB3F4890ED1F
:100E9000000AF6EE000AB4EEE00AF1EE10FA1BDCEE
:100EA0003B4890ED000ADFED3B0AB4EEE00AF1EEBC
:100EB00010FA11DC90ED010ADFED360AB4EEE00A1B
:100EC000F1EE10FA08DC90ED020ADFED320AB4EE22
:100ED000E00AF1EE10FA00DD0AE09FED2F0A02F0C1
:100EE00095FA701C86B22D4800888642FFF687AEC0
:100EF00000BFD4ED0C0A2948008800EE100AB8EEB5
:100F0000400A80EE801A84ED0C1A002015E004F1EE
:100F1000240101EB8001D1ED000A2049098800EE8F
:100F2000101AB8EE400A80EE801A04F1240101EB99
:100F3000800181ED001A411CC8B20328E7DBFFF7EE
:100F40003FFDA22000F0B6FA022206A9222000F0FE
:100F500091FAFFF72BFD9DF81800C0009DF81910BD
:100F60001EE000000000000068030024F2FA88BBC5
:100F70007779ABBBE1CB96B92C09244100008C42B8
:100F80000AD7A33B34030024380300247003002451
:100F90007C1B00249A99193E6F12033A6C030024BB
:100FA00040EA6115B5F5806F02DBA5F5006005B27A
:100FB00000EE105AF8EEC00AB4EE001AB3EE070ABB
:100FC00000EE810A84ED060A38480088401C00B211
:100FD00036490880364890ED000AF6EE000AB4EE75
:100FE000E00AF1EE10FA3FF7D1ADD4ED0C0A9FED17
:100FF000311A70EEC10AB0EE600A12F0F1FFDFEDB7
:101000002E0AB4EEE00AF1EE10FAECDC2B4890ED7B
:10101000000A5FED200AB4EEE00AF1EE10FAE2DC1D
:1010200090ED010A5FED250AB4EEE00AF1EE10FA48
:10103000D9DC90ED020A5FED290AB4EEE00AF1EE88
:1010400010FAD0DCD4ED090AB0EE600A12F0C8FF45
:10105000DFED1B0AB4EEE00AF1EE10FAC3DCD4EDCA
:101060000A0AB0EE600A12F0BBFFDFED150AB4EE1B
:10107000E00AF1EE10FAB6DCD4ED0B0AB0EE600A2D
:1010800012F0AEFFDFED0E0AB4EEE00AF1EE10FA58
:10109000A9DC00BF94ED0C0ADFED0A0A80EE801A8D
:1010A00084ED081A08B0BDEC048B70BD4003002429
:1010B00070030024CDCC1C416666663F7C1B002477
:1010C0000AD7233CC3F51C4110B5044AB2F84010BE
:1010D000D06B012205F01AFE10BD0000B002002402
:1010E00010B5044AB2F84010D06B002205F00EFE95
:1010F00010BD0000B002002410B5FFF7F1FF494910
:10110000002000F0CAF9FFF7DFFF9FED470A02F069
:101110007DF9FFF7E5FF4349002000F0BEF9FFF736
:10112000D3FF9FED410A02F071F9FFF7D9FFB62115
:10113000142000F0D1F9FFF7C7FF9FED3C0A02F041
:1011400065F9FFF7CDFF3749002000F0A6F9FFF75A
:10115000BBFF9FED350A02F059F9FFF7C1FF314996
:10116000002000F09AF9FFF7AFFF9FED2F0A02F081
:101170004DF92C4800780F2801D0FF2010BD002029
:101180002B49087047E0FFF7ABFF294A127802EBC2
:101190004202284B1A445178254A127802EB420247
:1011A000985C00F099F9FFF78FFF9FED1F0A02F09E
:1011B0002DF9FFF795FF1E49097801EB41011D4A02
:1011C000505C184900F069F9FFF77EFF9FED160AA1
:1011D00002F01CF91648007800EB4000154908445D
:1011E000407810490978884210D011480078401E94
:1011F0000F4908700846007800EB40000E4908448B
:1012000080780E49097808430C490870084800782E
:10121000401C07490870064800780628B3DB002008
:10122000ACE700003C0300246F12833A0AD7A33DC9
:101230003D03002454030024420300243E03002401
:1012400010B50022104911480FF006F800220E498F
:1012500024310E480FF000F800200D490870FFF708
:10126000B9FB0B490978084309490870FFF744FFA7
:101270000749097808430649087003484830FFF7D2
:101280006BFC0348007810BDB00200240810002455
:101290003E03002410B50446FFF792FB922000F0B5
:1012A00009F906226F49122000F0E4F8FFF77EFBEF
:1012B0006C484078000200B26A49097808436A49DC
:1012C00008800846B0F9000000EE100AB8EEC00A27
:1012D0006648D0ED000A20EE200AD4ED080A20EE80
:1012E000200A84ED000A5F48C078000200B25D4920
:1012F000897808435C4908800846B0F9000000EE90
:10130000100AB8EEC00A5948D0ED000A20EE200AB3
:10131000D4ED080A20EE200A84ED010A51484079F4
:10132000000200B24F49097908434F490880084636
:10133000B0F9000000EE100AB8EEC00A4B48D0ED3C
:10134000000A20EE200AD4ED080A20EE200A84EDDF
:10135000020AFFF7C5FE08224249002000F08AF881
:10136000FFF7B2FE3F4800780F284AD13D48C078C9
:10137000000200B23B49897808433B49088094ED5C
:10138000090A0846B0F9000000EE900AF8EEE00AFB
:10139000374890ED001A10EE810A84ED030A3148B7
:1013A0004079000200B22F49097908432E4908808C
:1013B00094ED0A0A0846B0F9000000EE900AF8EE33
:1013C000E00A2B4890ED001A10EE810A84ED040A21
:1013D0002448C079000200B2224989790843224991
:1013E000088094ED0B0A0846B0F9000000EE900A60
:1013F000F8EEE00A1E4890ED001A10EE810A84ED26
:10140000050AFFF7DDFAA22000F054F80222154980
:10141000222000F02FF8FFF7C9FA12480078C00028
:101420001049497840EA61100F4908800846B0F930
:101430000000B0F5806F05DB08460088A0F500606D
:1014400000B208800848B0F9000000EE100AF8EE7B
:10145000C00AB4EE001AB3EE070A00EE810A84ED6A
:10146000070A10BD740300247C0300243403002405
:101470003803002470B506460C46154646F0800039
:1014800000F018F806E0552000F014F82070641CF5
:10149000681EC5B2002DF6D170BD70B504460D466C
:1014A00044F0800000F006F8552000F003F82870A2
:1014B00070BD000001B582B04FF47A70054900900C
:1014C000012301AA486802A908F0D8FB9DF804008E
:1014D0000EBD0000EC1A002470B505460C462846E7
:1014E000FFF7E8FF2046FFF7E5FF70BD80ED000A3B
:1014F000C0ED010A80ED021AC0ED071A80ED092A3D
:10150000C0ED0B3A80ED0A3AC0ED0E2A80ED0F4A8D
:101510007047000010B59FEDFE4ADFEDFE3A9FEDEB
:10152000FD3ADFEDFC2A9FEDFB2ADFEDF91A9FED76
:10153000F91ADFEDF80AB0EE080AF748FFF7D6FF10
:101540009FEDF34ADFEDF33A9FEDF23ADFEDF12A3A
:101550009FEDF02ADFEDEE1A9FEDEE1ADFEDED0ABA
:10156000B0EE080AEC484430FFF7C0FF9FEDE84AB0
:10157000DFEDE83A9FEDE73ADFEDE62A9FEDE52A59
:10158000DFEDE31A9FEDE31ADFEDE20AB0EE080AA1
:10159000E1488830FFF7AAFF9FEDDD4ADFEDDD3A35
:1015A0009FEDDC3ADFEDDB2A9FEDDA2ADFEDD81A7A
:1015B0009FEDD81ADFEDD70AB0EE080AD648CC3036
:1015C000FFF794FF9FEDD54ADFEDD23A9FEDD13A78
:1015D000DFEDD32A9FEDCF2ADFEDD21A9FEDD01A8F
:1015E000DFEDCC0A9FEDD00AD048FFF77FFF9FEDDB
:1015F000D04ADFEDC83AB0EE083ADFEDCD2A9FEDD4
:10160000CC2ADFEDCB1A9FEDC31ADFEDCA0AB0EE8C
:10161000080AC6489C30FFF769FF9FEDC74ADFED17
:10162000BD3A9FEDBC3ADFEDC52A9FEDBA2ADFED4A
:10163000C21AB0EE001ADFEDB70A9FEDC10AC14829
:10164000FFF754FF9FEDC04ADFEDBA3AB0EE003A23
:10165000DFEDBD2A9FEDBC2ADFEDBB1A9FEDAD1A71
:10166000DFEDBA0A9FEDBA0ABA48FFF73FFF9FEDD8
:10167000BA4ADFEDA83AB6EE003ADFEDB02A9FEDA8
:10168000B72ADFEDB51A9FEDA31ADFEDA20A9FED91
:10169000B40AB448FFF72AFFB24AAE49A948BC30A1
:1016A00002F0A8F99FEDA84ADFEDA23AB0EE003AA9
:1016B000DFEDA52A9FEDA42ADFEDA31A9FED951A71
:1016C000DFEDA20A9FEDA20AA748FFF70FFF9FEDEB
:1016D000A24ADFED903AB6EE003ADFED982A9FED90
:1016E0009F2ADFED9D1A9FED8B1ADFED8A0A9FED91
:1016F0009C0A9E48FFF7FAFE9C4A9B499148443059
:1017000002F078F99FED904ADFED823AB6EE003AAA
:10171000DFED802A9FED7F2ADFED8B1A9FED7D1A8A
:10172000DFED7C0AB2EE040A9148FFF7DFFE9FED81
:101730008A4ADFED783AB6EE003ADFED802A9FED77
:10174000872ADFED851A9FED731ADFED720A9FED90
:10175000890A8948FFF7CAFE874A8549874802F007
:1017600049F99FED6C4ADFED6B3A9FED6A3ADFED88
:10177000692A9FED682ADFED671A9FED661ADFED93
:10178000650A9FED640A7E48FFF7B0FE9FED614A4F
:10179000DFED603A9FED5F3ADFED5E2A9FED5D2A57
:1017A000DFED5C1A9FED5B1ADFED5A0A9FED590AD7
:1017B0007448FFF79BFE734A7149734802F01AF9A7
:1017C0009FED724ADFED5B3AB1EE0C3ADFED702A25
:1017D0009FED702ADFED6E1A9FED4E1ADFED6E0A57
:1017E000B2EE040A6D48FFF781FE9FED5B4ADFED24
:1017F000493AB6EE003ADFED4B2A9FED692ADFED5C
:10180000561A9FED441ADFED430A9FED660A6648BB
:10181000FFF76CFE644A61495B48783002F0EAF8F1
:101820009FED3C4ADFED3B3A9FED3A3ADFED392A36
:101830009FED382ADFED371A9FED361ADFED350AB6
:101840009FED340A50484438FFF750FE9FED4F4A51
:10185000DFED303A9FED553ADFED4D2A9FED4D2AF1
:10186000DFED4B1A9FED2B1ADFED2A0AB8EE000AC6
:101870004F48FFF73BFE9FED384ADFED263AB6EEC4
:10188000003ADFED282A9FED462ADFED331A9FED5F
:10189000211ADFED200A9FED1F0A4648FFF726FEBA
:1018A000444A43493848F03002F0A4F89FED184A02
:1018B000F2EE043AB3EE0E3ADFED1A2A9FED192A42
:1018C000DFED181A9FED131ADFED120A9FED3A0AA9
:1018D0003A48FFF70BFE9FED0E4AF2EE043AB3EEE4
:1018E0000E3ADFED102A9FED0F2ADFED091A9FED6A
:1018F000091ADFED080A9FED300A3148FFF7F6FDBF
:101900009FED034AF2EE043AB3EE0E3A5AE00000BD
:1019100000007A46000000006407002400606A4668
:1019200000C0DA450000FA450000164374080024A0
:1019300000007A436F12833A0090E24600409C45D3
:1019400000802244C829002400005243F4FD543C86
:1019500000008242102300240060EA4600401C463A
:101960000000E642542300240022002444220024E4
:101970002024002400C00FC564240024FC2A002475
:1019800078210024BC2100248C2600240000FA4386
:101990000000C84200004842CDCCCC3D8822002443
:1019A0000000FA440000A042CC220024CDCC4C3EE2
:1019B000A8240024EC24002400001842580A002423
:1019C000700B00245FED292A1FED2A2A5FED301AE3
:1019D0001FED301A5FED310A1FED090A2448FFF7A9
:1019E00085FD1FED224AF2EE043A1FED163A5FED37
:1019F000182A9FED202A5FED351A1FED3A1A5FED88
:101A00003B0AB1EE040A1C48FFF770FD1FED3D4A8A
:101A10005FED403A1FED413A5FED232A1FED202A8A
:101A20005FED331A1FED451A5FED460AB3EE040A67
:101A30001248FFF75BFD1FED474A5FED4A3A1FED85
:101A40004B3A5FED2D2A1FED2A2A5FED3D1A1FED5F
:101A50004F1A5FED500AB2EE0E0A0948FFF746FD35
:101A6000074A06490448783801F0C4FF10BD000059
:101A7000880C002400007A44D00D00243025002476
:101A80007425002470B505460E4614462078AA2811
:101A900073D1E07ADD2870D13C488068401C3B4916
:101AA0008860E0788011A0B92079E17801F03F01E9
:101AB00001EBC10202EB011100EB810000EE100A04
:101AC000B8EEC00ADFED320A80EE201A85ED001A6A
:101AD0001CE0E0780121B1EBA01F17D12079E1785B
:101AE00001F03F0101EBC10202EB011100EB8100AB
:101AF00000EE100AF8EEC00A9FED251A80EE810A6A
:101B0000FFEE000A20EE200A85ED000A60798011C0
:101B1000A0B9A079617901F03F0101EBC10202EBAC
:101B2000011100EB810000EE100AB8EEC00ADFEDF3
:101B3000180A80EE201A85ED011A1CE06079012157
:101B4000B1EBA01F17D1A079617901F03F0101EB42
:101B5000C10202EB011100EB810000EE100AF8EE69
:101B6000C00A9FED0B1A80EE810AFFEE000A20EEFC
:101B7000200A85ED010A207A28743146284610F0A3
:101B8000CFFA304600F006F870BD0000341B002488
:101B90000000C84210B5044649480088401C00B205
:101BA0004749088004F2BC5090ED0A0ADFED450A6F
:101BB00020EE200ABDEEC00A10EE100A00B2424923
:101BC000088004F2BC5090ED0A0ADFED3E0A20EED8
:101BD000200ABDEEC00A10EE100A00B23B49088090
:101BE00004F2BC5090ED0A0ADFED360A20EE200A1E
:101BF000BDEEC00A10EE100A00B23549088004F2AA
:101C0000BC5090ED0A0ADFED2F0A20EE200ABDEE4F
:101C1000C00A10EE100A00B22E49088000202E499A
:101C20000860AA202D49087007204870012088709C
:101C300023480088000AC8702148007808712848A5
:101C40004068000E487126484068000C887124489E
:101C50008088000AC8712248007908720020487202
:101C600019480078887218480088000AC872174816
:101C70000078087315480088000A487314480078F3
:101C8000887313480088000AC873124800780874E3
:101C900010480088000A48740F480068000E8874D5
:101CA0000D480068000CC8740B480088000A0875CD
:101CB000DD2048750B490C480FF0A3FD10BD000056
:101CC000A80200240060EA46A0020024A202002428
:101CD000A4020024A6020024AC02002460210024F7
:101CE000341B0024980200244001002470B50446EF
:101CF0000D46224602490348FFF7C4FE002070BD8E
:101D0000B82500244C1B002400BFFEE710B58AB0A4
:101D1000044620460DF0A2FA0748202204F11C01D7
:101D200008906846FEF793FC04F10C000FC80EF013
:101D300055FE00200AB010BD601B002410B50446FB
:101D400020460DF08BFA024801F09EF8002010BDED
:101D50001428002410B592B004460020029003908D
:101D6000022004900120059000200690079002A90F
:101D7000206804F002F810B1012012B010BD00205C
:101D80000A9001210B9102210C910D9100210E91DD
:101D90000F910AA9206803F0F0FF08B10120ECE7D9
:101DA00001200090012302221146206804F039F836
:101DB000206804F0C5FD00220121206803F040FFE7
:101DC00000221021206803F03BFF0020D5E710B56A
:101DD00003460C46201D191D0A68506002604160D0
:101DE000086000BF00BF10BD70B504460D462868EE
:101DF000E06369682164E968A16405F1240204F1E3
:101E00003C01206803F070FF08B1002070BD012084
:101E1000FCE700000FB410B52B9C414902988842A2
:101E20002FD1B4F5007F14DDB4F5017F11DC2998C2
:101E3000C0F30722A4F201203A4901F810202998A2
:101E4000C1B2A4F20120012202EB400235488154C4
:101E500062E0B4F5017F5FDDB4F5027F5CDC2998B8
:101E6000C0F30722A4F205202F4901F81020299879
:101E7000C1B2A4F20520012202EB40022A4881549B
:101E80004AE02A490298884246D1B4F5007F14DD21
:101E9000B4F5017F11DC2998C0F30722A4F20120D8
:101EA000234901F810202998C1B2A4F2012001228F
:101EB00002EB40021E4881542EE0B4F5017F14DD90
:101EC000B4F5027F11DC2998C0F30722A4F20520A3
:101ED000184901F810202998C1B2A4F20520012266
:101EE00002EB40021348815416E0B4F5027F13DD83
:101EF000B4F5037F10DA2998C0F30722A4F2092071
:101F00000D4901F810202998C1B2A4F2092001223C
:101F100002EB400208488154002010BC5DF814FB1D
:101F2000300E00248C010024B8010024D00E0024BF
:101F3000100200243C020024680200240FB410B5F3
:101F40002B9C3549029888422FD1B4F5017F14DDCE
:101F5000B4F5027F11DC2998C0F30722A4F2052012
:101F60002E4901F810202998C1B2A4F205200122BF
:101F700002EB4002294881544AE0B4F5027F47DD74
:101F8000B4F5037F44DA2998C0F30722A4F20920AC
:101F9000234901F810202998C1B2A4F20920012296
:101FA00002EB40021E48815432E01E4902988842EA
:101FB0002ED1B4F5017F14DDB4F5027F11DC299830
:101FC000C0F30722A4F20520174901F81020299830
:101FD000C1B2A4F20520012202EB40021248815452
:101FE00016E0B4F5027F13DDB4F5037F10DA29980B
:101FF000C0F30722A4F209200C4901F81020299807
:10200000C1B2A4F20920012202EB40020748815428
:10201000002010BC5DF814FB300E0024B801002431
:10202000E4010024D00E00243C02002468020024B5
:102030000FB410B504469DF839009DF8382040EAE9
:10204000022000B2E0809DF83B209DF83A0042EA71
:10205000002000B220809DF83D209DF83C0042EA1F
:10206000002000B260809DF83E002071B4F90600A7
:102070008860002010BC5DF814FB0000074B02686C
:102080009A4202D1064A10609166064B02689A4253
:1020900002D1054A106091667047000000A0004020
:1020A0001800002400A40040840000240246487C5C
:1020B000012819D191ED010AF1EE040AB4EEE00A0B
:1020C000F1EE10FA10DD91ED010AF2EE0E0AB4EE17
:1020D000E00AF1EE10FA03D20A23A2F8943306E0E4
:1020E0009623A2F8943302E00023A2F89433B2F8C6
:1020F0009403704770B504460D46A088401CA0802C
:10210000A088B0F5FA7F11DA95EDF30AF0EE400AF7
:1021100044489FED450A0DF0F3F8BDEEC00A10EEFD
:10212000100A01B24FF43C70015379E04FF47A7019
:10213000A08095EDF30ADFED3D0AB4EEE00AF1EE82
:1021400010FA11DB95EDF30AF0EE400A35489FEDE9
:10215000380A0DF0D5F8BDEEC00A10EE100A01B233
:102160004FF43C70015319E095EDF30ADFED310AAD
:10217000B4EEE00AF1EE10FA10D895EDF30AF0EEA5
:10218000400A28489FED280A0DF0BAF8BDEEC00AB3
:1021900010EE100A01B24FF43C700153B4F9F00292
:1021A00000EE100AB8EEC00AD4EDC30AF1EE600AE0
:1021B0009FED211A70EE810AB4EEE00AF1EE10FAFA
:1021C00008D294EDC30AB1EE400ADFED1B0A30EEEF
:1021D000200A1DE0B4F9F00200EE100AB8EEC00AC1
:1021E000D4EDC30A9FED141A70EEC10AB4EEE00AF2
:1021F000F1EE10FA06DD94EDC30ADFED0F0A30EEC2
:10220000600A05E0B4F9F00200EE100AB8EEC00A68
:10221000BDEEC00A10EE100A01B24FF43C7001533B
:1022200070BD000074080024000018420000144231
:10223000000018C2000014C20000FA44C288A2F5CF
:102240008062002A03DDC288A2F5806202E0C288B3
:10225000C2F580620A2A0ADDC288A2F58062B1F85E
:10226000EC32D21A13B240F2F222535200E000BF15
:102270008288A2F58062002A03DD8288A2F580624E
:1022800002E08288C2F580620A2A0BDD8288A2F50C
:10229000806240F2EE235B5AD21A13B24FF43D72C1
:1022A000535200E000BFB1F9EC22002A37DBB1F94C
:1022B000F222002A17DDB1F9EC2200EE102AB8EE66
:1022C000C00AB1F9F22200EE902AF8EEE00A91ED90
:1022D000C11A00EE810ABDEEC00A10EE102A12B239
:1022E000A1F8EC2252E0B1F9F22200EE102AB8EE89
:1022F000C00AD1EDC10A60EE200AB1F9EC2200EE6D
:10230000102AB8EEC00AB0EE001A00EE810ABDEE47
:10231000C00A10EE102A12B2A1F8EC2236E0B1F990
:10232000F222002A1BDDB1F9F22200EE102AB8EEEB
:10233000C00AD1EDC10A60EE200AB1F9EC2200EE2C
:10234000102AB8EEC00AB0EE001A00EE810ABDEE07
:10235000C00A10EE102A12B2A1F8EC2216E0B1F970
:10236000EC2200EE102AB8EEC00AB1F9F22200EE1B
:10237000902AF8EEE00A91EDC11A00EE810ABDEE56
:10238000C00A10EE102A12B2A1F8EC22B1F9EE2226
:10239000002A39DBB1F9F422002A18DDB1F9EE2266
:1023A00000EE102AB8EEC00AB1F9F42200EE902A2D
:1023B000F8EEE00A91EDC21A00EE810ABDEEC00A05
:1023C00010EE102A13B240F2EE22535255E0B1F94A
:1023D000F42200EE102AB8EEC00AD1EDC20A60EE77
:1023E000200AB1F9EE2200EE102AB8EEC00AB0EED3
:1023F000001A00EE810ABDEEC00A10EE102A13B2D8
:1024000040F2EE22535238E0B1F9F422002A1CDDEA
:10241000B1F9F42200EE102AB8EEC00AD1EDC20ADA
:1024200060EE200AB1F9EE2200EE102AB8EEC00AE2
:10243000B0EE001A00EE810ABDEEC00A10EE102ABE
:1024400013B240F2EE22535217E0B1F9EE2200EE41
:10245000102AB8EEC00AB1F9F42200EE902AF8EE84
:10246000E00A91EDC21A00EE810ABDEEC00A10EE3C
:10247000102A13B240F2EE225352C288A2F58062B3
:10248000B2F5967F03DD012280F8242008E0C2889F
:10249000A2F5806212F5967F02DA012326221354F8
:1024A0008288A2F58062B2F5967F03DD01232722A0
:1024B000135408E08288A2F5806212F5967F02DA52
:1024C0000123252213544288A2F58062002A03DDED
:1024D0004288A2F5806202E04288C2F58062C82A82
:1024E00003DD01234222135402E00023422213544D
:1024F0002622125C90F82430D21A2ED190ED070AD1
:10250000B5EEC00AF1EE10FA13DD90ED070ADFED2B
:10251000740A30EE600A80ED070A90ED070AB5EE06
:10252000C00AF1EE10FA45D29FED6E0A80ED070A5F
:1025300040E090ED070ADFED6A0A30EE200A80EDF8
:10254000070A90ED070AB5EEC00AF1EE10FA31DD88
:102550009FED640A80ED070A2CE02622125C90F8B9
:102560002430D21A00EE102AF8EEC00A90ED070AC5
:102570009FED5D1A01EE200A80ED070A90ED070A33
:10258000F8EE080AB4EEE00AF1EE10FA02D2B8EE64
:10259000080A0DE090ED070AF0EE080AB4EEE00A32
:1025A000F1EE10FA02DDB0EE080A01E090ED070A44
:1025B00080ED070A2722135C2522125C9A1A2ED17D
:1025C00090ED080AB5EEC00AF1EE10FA13DD90EDB9
:1025D000080ADFED430A30EE600A80ED080A90ED4C
:1025E000080AB5EEC00AF1EE10FA45D29FED3D0A99
:1025F00080ED080A40E090ED080ADFED390A30EE80
:10260000200A80ED080A90ED080AB5EEC00AF1EE46
:1026100010FA31DD9FED330A80ED080A2CE0252207
:10262000135C2722125C9A1A00EE102AF8EEC00AF8
:1026300090ED080A9FED2C1A01EE200A80ED080AA1
:1026400090ED080AF8EE080AB4EEE00AF1EE10FA8E
:1026500002D2B8EE080A0DE090ED080AF0EE080A82
:10266000B4EEE00AF1EE10FA02DDB0EE080A01E085
:1026700090ED080A80ED080A90ED080ADFED1B0ACC
:1026800020EE200ABDEEC00A10EE102A12B2A1F808
:10269000EC2290ED070ADFED150A20EE200ABDEED0
:1026A000C00A10EE102A13B240F2EE225352104A22
:1026B000527B022A03D10E4AD27B032A08D00C4A4D
:1026C00092F84520012A09D1094A92F857202AB9DF
:1026D0004A780AB9012200E000224A7070470000DF
:1026E000C2F5A83D00000000BD74933C00007A458F
:1026F000D41B002410B5002433E01B4890F8A5003B
:1027000030B11A48007818B1194890F88C0358B9BC
:1027100004EBC40101EB04121549083101EB8200FE
:1027200000210CF0D5FC1AE0104911480BF08EFF87
:1027300010490F480CF0C8F804EBC40202EB041374
:102740000B4A083202EB8302516C04EBC40202EB29
:102750000413074A083202EB83000CF0B9FC601C3A
:1027600044B2042CC9DB10BDD41B0024B8250024BE
:10277000CC050024601B002490ED010AD1ED020A73
:1027800020EE200AD0ED020A91ED011A00EEC10AF6
:1027900082ED000A90ED020AD1ED000A20EE200A37
:1027A000D0ED000A91ED021A00EEC10A82ED010A95
:1027B00090ED000AD1ED010A20EE200AD0ED010AC9
:1027C00091ED001A00EEC10A82ED020A7047000086
:1027D00010B5024802F038F810BD0000A41700241C
:1027E00010B5024802F030F810BD0000B416002405
:1027F00010B5024802F028F810BD00001C18002493
:1028000010B5024802F020F810BD00009418002412
:1028100010B5024802F018F810BD00000C19002491
:1028200010B5024802F010F810BD00008419002411
:1028300010B5024802F008F810BD0000FC19002491
:1028400010B5024802F000F810BD0000741A002410
:1028500010B5024801F0F8FF10BD0000C4150024B7
:1028600010B5024801F0F0FF10BD00003C16002436
:1028700010B5024801F0E8FF10BD000090100024E0
:1028800010B5024801F0E0FF10BD0000081100245F
:1028900010B5024801F0D8FF10BD00002C1700242D
:1028A0000146374A0868904249D0354A18320868CC
:1028B000904244D0324A3032086890423FD0304A89
:1028C0004832086890423AD02D4A603208689042F7
:1028D00035D02B4A78320868904230D0284A90325E
:1028E000086890422BD0264AA8320868904226D029
:1028F000244A0868904222D0224A1832086890423E
:102900001DD0204A30320868904218D01D4A483203
:102910000868904213D01B4A6032086890420ED07B
:10292000184A78320868904209D0164A90320868EE
:10293000904204D0134AA8320868904201D1012085
:1029400000E00020B0B10A78103A1823B2FBF3F08F
:1029500000F007020C4B9A5CCA65032805D90A6887
:102960006FF30902121D8A6503E00A686FF309021A
:102970008A6503E0086820F0FF008865886D70476D
:102980001000024010040240FC43010810B5026828
:102990002B4C0368A34222D0294C14340368A34271
:1029A0001DD0274C28340368A34218D0244C3C3453
:1029B0000368A34213D0224C50340368A3420ED0C4
:1029C0001F4C64340368A34209D01D4C783403685B
:1029D000A34204D01A4C8C340368A34201D10123D2
:1029E00000E000238BB10378083B1424B3FBF4F11F
:1029F000144B03EB81030366124B8033436601F0F3
:102A00001F040123A340836618E00378103B1824B9
:102A1000B3FBF4F10C4B9A4204D80B4BA83B9A42FF
:102A200000D30831094B03EB81030366074B803366
:102A3000436601F01F040123A340836610BD00001C
:102A40000854025800580258B804024000080240D6
:102A50000179A9B3082940D8204B02689A4222D0B4
:102A60001E4B143302689A421DD01C4B2833026857
:102A70009A4218D0194B3C3302689A4213D0174B34
:102A8000503302689A420ED0144B643302689A4263
:102A900009D0124B783302689A4204D00F4B8C3322
:102AA00002689A4201D1012200E000224AB14A1E86
:102AB0000B4B03EB8202C266094A4032026708E010
:102AC0000BE04A1E074B03EB8202C266054A403206
:102AD00002674A1E01239340436770470854025817
:102AE0000059025800090240014600208A69D2B903
:102AF0008A6A32B1012A0DD0022A03D0032A10D1EA
:102B00000EE000BFCA6A02F08072B2F1807F00D18D
:102B1000012007E0CA6AB2F1C07F00D1012001E0C4
:102B200000E000BF36E08A69B2F5005F1BD18A6A17
:102B300032B1012A07D0022A03D0032A11D10AE0B8
:102B400000BF01200EE0CA6A02F08072B2F1807FFD
:102B500000D1012006E0CA6AB2F1C07F00D1012095
:102B600000E000BF16E08A6A32B1012A05D0022ACD
:102B700004D0032A0CD103E000BF00BF012008E00D
:102B8000CA6A02F08072B2F1807F00D1012000E0B9
:102B900000BF00BF70470000F0B5856D846D984F91
:102BA0000668BE4270D0964F18370668BE426BD09A
:102BB000934F30370668BE4266D0914F483706685B
:102BC000BE4261D08E4F60370668BE425CD08C4FEB
:102BD00078370668BE4257D0894F90370668BE42A4
:102BE00052D0874FA8370668BE424DD0854F066841
:102BF000BE4249D0834F18370668BE4244D0814F49
:102C000030370668BE423FD07E4F48370668BE4226
:102C10003AD07C4F60370668BE4235D0794F78375E
:102C20000668BE4230D0774F90370668BE422BD040
:102C3000744FA8370668BE4226D0734F0668BE425E
:102C400022D0714F14370668BE421DD06E4F283710
:102C50000668BE4218D06C4F3C370668BE4213D09F
:102C6000694F50370668BE420ED0674F643706681A
:102C7000BE4209D0644F78370668BE4204D0624F26
:102C80008C370668BE4201D1012600E000263EB125
:102C9000D0E919767E60C66E16B1D0E91C767E60EA
:102CA000574F0668BE4249D0554F18370668BE4296
:102CB00044D0534F30370668BE423FD0504F48375C
:102CC0000668BE423AD04E4F60370668BE4235D0E5
:102CD0004B4F78370668BE4230D0494F9037066870
:102CE000BE422BD0464FA8370668BE4226D0454F7D
:102CF0000668BE4222D0434F18370668BE421DD038
:102D0000404F30370668BE4218D03E4F48370668FD
:102D1000BE4213D03B4F60370668BE420ED0394FDB
:102D200078370668BE4209D0364F90370668BE42F3
:102D300004D0344FA8370668BE4201D1012600E016
:102D40000026DEB190F85C6006F01F073F26BE400B
:102D5000AE600668366826F4802607683E6006681E
:102D600073608668402E04D10668B2600668F16020
:102D700044E00668B1600668F2603FE0224F0668F2
:102D8000BE4222D0204F14370668BE421DD01E4FCF
:102D900028370668BE4218D01B4F3C370668BE4233
:102DA00013D0194F50370668BE420ED0164F643705
:102DB0000668BE4209D0144F78370668BE4204D078
:102DC000114F8C370668BE4201D1012600E0002673
:102DD000A6B190F85C6006F01F070126BE40666051
:102DE000066873608668402E04D10668B260066883
:102DF000F16003E00668B1600668F260F0BD0000B3
:102E00001000024010040240085402580FB470B57C
:102E10000446DDE92056258084F8246120880528B1
:102E200009DA4FF40070A06160642067C4F89C0068
:102E3000C4F8F80008E040F2FF10A0616064206769
:102E4000C4F89C00C4F8F8004FF400216162D4205B
:102E50000151FF2184F83C1084F83D1084F83E10A5
:102E600084F83F1084F8401084F8411084F8421030
:102E7000FC2184F8431004F1180105A8FEF7B4FF03
:102E800070BC5DF814FB000010B5044694F82401F2
:102E900030B1012805D0022804D003287BD160E09E
:102EA00000BF00BF208800F50070D4F8C810814230
:102EB00056D194F8F21094F8F10041EA00205149FB
:102EC000088094F8F300010194F8F40041EA20101E
:102ED0004D49088094F8F51094F8F40000F00F00C4
:102EE00041EA00204949088094F8F60000EE100AF3
:102EF000B8EE400ABCEEC00A10EE100AA07194EDC4
:102F00004F1AF0EE410A94ED4A1AB0EE410A102130
:102F10003C48008811F0A0F984ED020A94ED501AA3
:102F2000F0EE410A94ED4B1AB0EE410A0C213648FE
:102F3000008811F091F9BDEEC00A10EE100A00B23F
:102F4000208294ED531AF0EE410A94ED4E1AB0EE41
:102F5000410A0C212D48008811F07EF984ED030A06
:102F60004DE0208800F50070D4F8C810814244D1AB
:102F700094F8F11094F8F00041EA002000EE100AF5
:102F8000B8EEC00A84ED020AD4ED020A9FED201AC1
:102F900080EE810A00E031E0DFED1E0A20EE200A1B
:102FA00084ED020A94F8F31094F8F20041EA00204C
:102FB00000B2208294F8F51094F8F40041EA002061
:102FC00000B2A080B4F9040000EE100AB8EEC00A06
:102FD000DFED110A80EE201ABDEEC10A10EE100AD4
:102FE00000B2A08094F8F60000EE100AB8EE400A95
:102FF000BCEEC00A10EE100AA07100E000BF00BFD6
:1030000010BD0000880200248A0200248C020024E3
:10301000000000460000B443CDCC4C444FF4806225
:103020008280C280028142810322027342734FF484
:1030300080614180002101820022428282823C2103
:103040000A543D210A5442210A543F210A54402186
:103050000A5444210A5445210A5441210A543E216C
:103060000A5443210A543B210A549FED060A80ED7D
:10307000070A9FED040A80ED080A3221A0F8A61085
:10308000704700000000000030B504460D462146A0
:10309000064800F00DF80548B0F9A8001E2803DD29
:1030A00000200249A1F8A600002030BDD41B002456
:1030B00030B504460B4634F8A80F401C00B22080FF
:1030C00034F9A809B0F57A7F03DD4FF47A70A4F8DB
:1030D000A800012084F8A400002500BF18785978C2
:1030E00040EA0120C0F30A0040F2946188420ADC01
:1030F0001878597840EA0120C0F30A00B0F5B67F8D
:1031000001DB681CC5B25878C010997840EA4110BC
:10311000C0F30A0040F2946188420BDC5878C0107A
:10312000997840EA4110C0F30A00B0F5B67F01DBA0
:10313000681CC5B298788011D97840EA8100197965
:1031400040EA8120C0F30A0040F2946188420EDC1C
:1031500098788011D97840EA8100197940EA812075
:10316000C0F30A00B0F5B67F01DB681CC5B2187960
:103170004010597940EAC110C0F30A0040F294614E
:1031800088420BDC18794010597940EAC110C0F32D
:103190000A00B0F5B67F01DB681CC5B25879001192
:1031A0000121B1EB900F0BD0587900110221B1EB46
:1031B000900F05D0587900110321B1EB900F01D188
:1031C000681CC5B25879C0F30110012809D058799C
:1031D000C0F30110022804D05879C0F3011003286D
:1031E00001D1681CC5B2062D7ED11878597840EA05
:1031F0000120C0F30A01A1805878C010997840EAF4
:103200004110C0F30A01E18098788011D97840EA32
:103210008100197940EA8120C0F30A0121811879DF
:103220004010597940EAC110C0F30A016181587910
:103230000011810821735879C0F301116173187C62
:10324000597C40EA0120C0F30A006080A088B0F5F4
:103250007F7F06DDA08840F20441884201DA091F21
:10326000A180E088B0F57F7F06DDE08840F2044170
:10327000884201DA091FE1802089B0F57F7F06DDF1
:10328000208940F20441884201DA091F21816089C6
:10329000B0F57F7F06DD608940F20441884201DAA3
:1032A000091F61819879D97940EA012000B2208212
:1032B000187A597A40EA012001B26182987AD97A63
:1032C00040EA012001B2A182197BA175597BE17509
:1032D000B4F9100046F2A811884201DD08462082A8
:1032E000B4F91000354900E064E0884202DA49F69A
:1032F00058602082B4F9120046F2A811884200DD1D
:103300006182B4F912002D49884202DA49F6586107
:103310006182987B00F0010084F82400987BC0F360
:10332000400126200155987BC0F3800125200155DE
:10333000987BC0F3C00127200155D87BC1093120FB
:103340000155D87BC0F380112C200155D87BC0F3E8
:1033500040112F200155D87BC0F3001133200155B7
:10336000D87BC0F3C00132200155D87BC0F3800167
:103370002E200155D87BC0F340012D200155D87B6C
:1033800000F0010130200155987BC1092B20015527
:10339000987BC0F380112A200155987BC0F340111F
:1033A00029200155987BC0F30011282001552046A3
:1033B0000CF0F0F9002084F8A40030BD589EFFFF07
:1033C00008B50E480078B8B901200C4908700C48BF
:1033D000406800900B4900980968884204D20A4866
:1033E0000068401C084908600548406805490860B5
:1033F00000200249087000BF08BD00001801002429
:10340000001000E008010024040100240C49486871
:10341000F0EE400A00BF0A494968091A01EE101A85
:10342000F8EE411A074991ED001AB8EE411A20EE64
:10343000811AF4EEC11AF1EE10FAECD370470000D5
:10344000001000E0F800002410B52DED028B82B0D2
:1034500004460E484068019020680199081A00EE61
:10346000100AF8EE400A0A4890ED000AB8EE400A49
:1034700080EE801AB0EE418A01982060FFF7A0FF2D
:10348000B0EE480A02B0BDEC028B10BD001000E0A7
:10349000F800002410B52DED028B00F05DF80F4808
:1034A00090ED000AB8EE400A808800EE900AF8EE2F
:1034B000600A9FED0B1A00EE810A0848C08800EEF2
:1034C000900AF8EE600A9FED071A00EE810AB0EE4E
:1034D000408AB0EE480ABDEC028B10BDF00000241B
:1034E0006F12833ABD37863510B50446134800681D
:1034F00040F080701149086000201149486008467A
:10350000006840F0010008600E4860430E49086002
:10351000084600684FF47A71B0FBF1F00B4908607F
:10352000094800680749B0FBF1F00949086000202C
:1035300008490860FFF744FF10BD0000FCED00E003
:10354000001000E040420F00F8000024FC000024BE
:10355000000100240401002438B529484068009087
:10356000FFF72EFF274800684FF0FF31A0FB013125
:103570000098181841F10001234A03C22348002390
:103580002149026803C9FCF7A6FF214A03C220486B
:103590000CC81E4800680024A2FB001503FB005065
:1035A00002FB04021848D0E90030591A60EB02000F
:1035B000184AC2E900101648006817490860174801
:1035C00000231449026803C9FCF785FF124988806B
:1035D000084680881149096841430E48D0E9003007
:1035E000591A60F100000E4AC2E900100D4800238C
:1035F0000B49026803C9FCF76EFF0749C88038BD54
:10360000001000E00401002410010024F800002450
:103610002001002428010024F0000024FC000024E4
:103620003001002400010024704790ED000AD1ED24
:10363000000A20EE200AD0ED010A91ED011A00EEF9
:10364000810AD0ED020A91ED021A00EE810A70475C
:10365000F0EE401A31EEE00A80ED030A90ED030A25
:1036600090ED002A20EE020A80ED050A90ED050A91
:1036700090ED062AB1EE422AB4EEC20AF1EE10FA3B
:1036800004D290ED060AB1EE400A0DE090ED050A75
:1036900090ED062AB4EEC20AF1EE10FA02DD90EDCA
:1036A000060A01E090ED050A80ED050A90ED070A93
:1036B00090ED032AD0ED012A02EE220A80ED070ADE
:1036C00090ED030AB5EEC00AF1EE10FA02DD90EDBE
:1036D000030A03E090ED030AB1EE400A90ED0A2AD6
:1036E000B4EEC20AF1EE10FA03DD9FEDC10A80EDDF
:1036F000070A90ED030AB5EEC00AF1EE10FA02DDFA
:1037000090ED030A03E090ED030AB1EE400A90ED5C
:10371000092AB4EEC20AF1EE10FA03D29FEDB40A00
:1037200080ED070A90ED070A90ED082AB1EE422AD3
:10373000B4EEC20AF1EE10FA04D290ED080AB1EE2E
:10374000400A0DE090ED070A90ED082AB4EEC20A97
:10375000F1EE10FA02DD90ED080A01E090ED070AA3
:1037600080ED070A90ED030A90ED042A30EE420A3C
:1037700090ED022A20EE020A80ED0B0A90ED0B0A72
:1037800090ED0C2AB1EE422AB4EEC20AF1EE10FA24
:1037900004D290ED0C0AB1EE400A0DE090ED0B0A58
:1037A00090ED0C2AB4EEC20AF1EE10FA02DD90EDB3
:1037B0000C0A01E090ED0B0A80ED0B0A90ED030A74
:1037C00080ED040A90ED050A90ED072A30EE020A1A
:1037D00090ED0B2A30EE020A80ED0E0A90ED0E0AF3
:1037E00090ED0D2AB1EE422AB4EEC20AF1EE10FAC3
:1037F00004D290ED0D0AB1EE400A0DE090ED0E0AF4
:1038000090ED0D2AB4EEC20AF1EE10FA02DD90ED51
:103810000D0A01E090ED0E0A80ED0E0A90ED0E0A01
:1038200030EE410A80ED120A90ED120A90ED0F2A57
:1038300020EE020A80ED140A90ED140A90ED152A8C
:10384000B1EE422AB4EEC20AF1EE10FA04D290EDC3
:10385000150AB1EE400A0DE090ED140A90ED152A1C
:10386000B4EEC20AF1EE10FA02DD90ED150A01E0A5
:1038700090ED140A80ED140A90ED160A90ED122ACC
:10388000D0ED102A02EE220A80ED160A90ED120AFF
:10389000B5EEC00AF1EE10FA02DD90ED120A03E077
:1038A00090ED120AB1EE400A90ED192AB4EEC20A68
:1038B000F1EE10FA03DD9FED4E0A80ED160A90ED51
:1038C000120AB5EEC00AF1EE10FA02DD90ED120A0E
:1038D00003E090ED120AB1EE400A90ED182AB4EE22
:1038E000C20AF1EE10FA03D29FED410A80ED160AEA
:1038F00090ED160A90ED172AB1EE422AB4EEC20AF4
:10390000F1EE10FA04D290ED170AB1EE400A0DE084
:1039100090ED160A90ED172AB4EEC20AF1EE10FAF5
:1039200002DD90ED170A01E090ED160A80ED160A0F
:1039300090ED120A90ED132A30EE420A90ED112A12
:1039400020EE020A80ED1A0A90ED1A0A90ED1B2A69
:10395000B1EE422AB4EEC20AF1EE10FA04D290EDB2
:103960001B0AB1EE400A0DE090ED1A0A90ED1B2AF9
:10397000B4EEC20AF1EE10FA02DD90ED1B0A01E08E
:1039800090ED1A0A80ED1A0A90ED120A80ED130AE2
:1039900090ED140A90ED162A30EE020A90ED1A2AE4
:1039A00030EE020A80ED1D0A90ED1D0A90ED1C2AF2
:1039B000B1EE422AB4EEC20AF1EE10FA04D290ED52
:1039C0001C0AB1EE400A0DE090ED1D0A90ED1C2A94
:1039D000B4EEC20AF1EE10FA02DD90ED1C0A01E02D
:1039E00090ED1D0A80ED1D0A90ED1D0A7047000044
:1039F0000000000091ED000A80ED000A91ED010A3F
:103A000080ED010A91ED020A80ED020A91ED070AAC
:103A100080ED060A91ED090A80ED080A91ED0B0A86
:103A200080ED0A0A91ED0A0A80ED090A91ED0E0A6D
:103A300080ED0C0A91ED0F0A80ED0D0A92ED000A5F
:103A400080ED0F0A92ED010A80ED100A92ED020A54
:103A500080ED110A92ED070A80ED150A92ED090A30
:103A600080ED170A92ED0B0A80ED190A92ED0A0A11
:103A700080ED180A92ED0E0A80ED1B0A92ED0F0AF6
:103A800080ED1C0A704772B600BFFEE710B5024811
:103A900002F0E0FA10BD0000300E002410B502481C
:103AA00002F0D8FA10BD0000D00E002410B5014677
:103AB0004A6B0868D0F884004FF6FC74A04340EAD3
:103AC00082000C68C4F884000868D0F8840020F4F0
:103AD0007F04088F44EA00400C68C4F88400886BB7
:103AE00002440868D0F888004FF6FC74A04340EA0E
:103AF00082000C68C4F888000868D0F8880020F4B8
:103B0000FE04888F44EA00400C68C4F88800C86B43
:103B100002EB40020868D0F8A0004FF6FC74A04306
:103B200040EA82000C68C4F8A0000868D0F8A00041
:103B300020F4FE044020405A44EA00400C68C4F8D7
:103B4000A000D1E9104004FB00220868D0F8B000C2
:103B50004FF6FC74A04340EA82000C68C4F8B00041
:103B60000868D0F8B00020F4FE04B1F8480044EA38
:103B700000400C68C4F8B000D1E9124004FB0022F8
:103B80000868D0F8AC004FF6FC74A04340EA82000D
:103B90000C68C4F8AC00D1E9144004FB00220868AA
:103BA000D0F8F0004FF6FC74A04340EA82000C68A5
:103BB000C4F8F0000868D0F8F00020F47C14B1F8E4
:103BC000580044EA00400C68C4F8F000886D02EB2D
:103BD00040020868D0F8C0004FF6FC74A04340EAE9
:103BE00082000C68C4F8C0000868D0F8C00020F457
:103BF0007C14B1F85C0044EA00400C68C4F8C000D2
:103C00000868D0F8C00020F07C5491F8600044EAC5
:103C100000600C68C4F8C0002A4C486B04EB8000BC
:103C2000C866CC6E886B04EB80040C670C6FC86BA5
:103C300004EBC0044C67D1E9100460434C6F04EB03
:103C400080048C67D1E9120460438C6F04EB80041C
:103C5000CC67D1E914046043CC6F04EB800480206E
:103C600044504458886D04EBC004842044508C6E4A
:103C7000C86D60438424645804EB80048820445059
:103C80008C6E086E60438824645804EB8004902096
:103C9000445040580C4CA04209D99831486840F033
:103CA00020004860032001F89809012010BDCB6E68
:103CB00002E0002018601B1D902040589842F8D860
:103CC0000020F3E700AC0040FCD300402DE9F041B8
:103CD000054614461E46D1F804C0BCF1000F0AD1B7
:103CE000D1F810C0D1F808804CEA080CB1F8008077
:103CF0004CEA88430BE0D1F810C04CF0804CD1F86E
:103D000008804CEA080CD1F800804CEA080391F8CE
:103D10002080D1F81CC04CEA086CD1F818804CEA1D
:103D2000080CD1F814804CEA080CD1F80C804CEA4D
:103D30000807D5F868C00CFB06FCD5F8848008EBB2
:103D40008C021360121D1760121D002019E000F193
:103D5000030C14F80CC04FEA0C6800F1020C14F8C4
:103D60000CC048EA0C4800F1010C14F80CC048EAF9
:103D70000C2C14F800804CEA080CC2F800C0121D8C
:103D8000001DDFF81880D1F80CC008EB1C4C9CF823
:103D900000C08445DBD8BDE8F0810000A0430108E5
:103DA00010B50446E169491CE16194EDEA0A84ED2D
:103DB000DC0AB4F9940300EE900AF8EEE00AB0EEE3
:103DC000600A3F4809F070FBBDEEC00A10EE100A11
:103DD00001B2A4F8D01394EDDC0ADFED3A0AB4EE98
:103DE000E00AF1EE10FA19D294EDDD0ADFED360AA1
:103DF000B4EEE00AF1EE10FA10DD94EDDC0ADFED2E
:103E0000330A30EE200AD4EDDD0A30EE600AD4ED3C
:103E1000DE0A30EE200A84EDDE0A2EE094EDDC0AA4
:103E2000DFED290AB4EEE00AF1EE10FA19DD94EDA7
:103E3000DD0ADFED240AB4EEE00AF1EE10FA10D24A
:103E400094EDDC0ADFED220A30EE200AD4EDDD0A23
:103E500030EE600AD4EDDE0A30EE200A84EDDE0A90
:103E60000BE094EDDC0AD4EDDD0A30EE600AD4ED0F
:103E7000DE0A30EE200A84EDDE0A94EDDC0A84EDE1
:103E8000DD0A94EDDE0AF3EE0B0A80EE201A84EDD3
:103E9000DF1A207901280ED1E07860B9207F00F088
:103EA000030060B994EDE00AD4EDE10A30EE600A57
:103EB00084EDE00A03E094EDDF0A84EDE00A10BD32
:103EC000C40400240000C8C20000C8420000B4437B
:103ED0000000B4C330B5034613B94FF6FF7030BDD0
:103EE00009E013F8014B82EA0400C0B2054D35F831
:103EF000100080EA2222081EA1F10101F1D1104632
:103F0000EDE700000A46010830B5034605E013F866
:103F1000010B80EA02040448025D081EA1F10101C0
:103F2000F5D1104630BD00000945010810B52DED52
:103F3000028B0446B4F8900300EE100AB8EE400A73
:103F4000B0EE408AB0EE081BB7EEC80A0EF064FC73
:103F50009FED151B20EE010BB7EEC81A9FED142B39
:103F600021EE021BB7EEC82A01EE420BB7EEC81ACB
:103F70009FED112B02EE010B9FED111B30EE410B5B
:103F8000B7EEC00BF0EE408A9FED0F0AF4EEC08A48
:103F9000F1EE10FA03D89FED0C0AF0EE408AC4ED62
:103FA000C38ABDEC028B10BD3A05AA416213703F73
:103FB000022335592C11F93FC788A10600B76C4080
:103FC000D898270DA338AF40000048452DE9F041AF
:103FD000044602F0A7FE804614B90120BDE8F08136
:103FE00094F83500022808D08020606500BF0020CA
:103FF00084F8340000BF0120F0E7FE4920688842C1
:1040000049D0FC4918312068884244D0F949303100
:10401000206888423FD0F7494831206888423AD02A
:10402000F44960312068884235D0F24978312068FF
:10403000884230D0EF499031206888422BD0ED493A
:10404000A8312068884226D0EB492068884222D0D7
:10405000E9491831206888421DD0E749303120688D
:10406000884218D0E44948312068884213D0E24998
:104070006031206888420ED0DF497831206888425C
:1040800009D0DD4990312068884204D0DA49A8314E
:104090002068884201D1012000E0002068B120683A
:1040A000006820F01E00216808602068406920F048
:1040B000800021684861256806E02068006820F0DB
:1040C0000E00216808602568CA492068884270D0BF
:1040D000C8491831206888426BD0C6493031206801
:1040E000884266D0C34948312068884261D0C149BE
:1040F0006031206888425CD0BE49783120688842AF
:1041000057D0BC4990312068884252D0B949A83173
:10411000206888424DD0B8492068884249D0B649C5
:1041200018312068884244D0B34930312068884231
:104130003FD0B1494831206888423AD0AE49603119
:104140002068884235D0AC4978312068884230D028
:10415000A9499031206888422BD0A749A83120680E
:10416000884226D0A5492068884222D0A34914312C
:10417000206888421DD0A14928312068884218D083
:104180009E493C312068884213D09C4950312068B8
:1041900088420ED0994964312068884209D09749F5
:1041A00078312068884204D094498C312068884254
:1041B00001D1012000E0002028B1206E006820F429
:1041C0008070216E08608B492068884249D08949F7
:1041D00018312068884244D08649303120688842AE
:1041E0003FD084494831206888423AD081496031C3
:1041F0002068884235D07F4978312068884230D0A5
:104200007C499031206888422BD07A49A8312068B7
:10421000884226D078492068884222D076491831D1
:10422000206888421DD0744930312068884218D0F7
:10423000714948312068884213D06F496031206845
:1042400088420ED06C4978312068884209D06A498A
:1042500090312068884204D06749A831206888429C
:1042600006D12068006820F001002168086005E0A0
:104270002068006820F001002168086011E002F069
:1042800051FDA0EB080005280BD920206065032014
:1042900084F8350000BF002084F8340000BF0120FE
:1042A0009CE6286800F001000028E8D15149206808
:1042B000884249D04F4918312068884244D04D493E
:1042C0003031206888423FD04A49483120688842CE
:1042D0003AD0484960312068884235D04549783124
:1042E0002068884230D043499031206888422BD0E2
:1042F0004049A8312068884226D03F49206888423A
:1043000022D03D491831206888421DD03A493031C9
:104310002068884218D0384948312068884213D034
:1043200035496031206888420ED0334978312068A1
:10433000884209D0304990312068884204D02E4903
:10434000A8312068884201D1012000E0002040B15E
:10435000A66D94F85C0000F01F013F208840B0601B
:1043600007E0A76D94F85C0000F01F010120884071
:10437000786020492068884276D01E49183120682C
:10438000884271D01B493031206888426CD019496D
:1043900048312068884267D01649603120688842D9
:1043A00062D014497831206888425DD0114990313B
:1043B0002068884258D00F49A8312068884253D0DD
:1043C0000D49206888424FD00B4918312068884237
:1043D0004AD0094930312068884245D006494831E1
:1043E0002068884240D004496031206888423BD030
:1043F000014905E010000240100402400854025830
:104400007831206888422FD02549206888422BD0F7
:10441000234918312068884226D0224920688842E2
:1044200022D020491431206888421DD01D492831EE
:104430002068884218D01B493C312068884213D03C
:1044400018495031206888420ED0164964312068DE
:10445000884209D0134978312068884204D0114934
:104460008C312068884201D1012000E0002068B131
:10447000D4E919104860E06E40B1E06E006820F4A5
:104480008070E16E0860D4E91C104860012084F857
:10449000350000BF002084F8340000BF00BF9DE558
:1044A000A00402400854025870B504460CB901201B
:1044B00070BD94F83500022803D08020606501208B
:1044C000F6E7DC492068884249D0DA49183120688B
:1044D000884244D0D7493031206888423FD0D549FE
:1044E0004831206888423AD0D249603120688842F9
:1044F00035D0D04978312068884230D0CD499031CC
:10450000206888422BD0CB49A8312068884226D029
:10451000C9492068884222D0C7491831206888429A
:104520001DD0C54930312068884218D0C249483171
:104530002068884213D0C0496031206888420ED07C
:10454000BD4978312068884209D0BB499031206844
:10455000884204D0B849A8312068884201D101209E
:1045600000E00020F0B3042084F83500B149206851
:1045700088424BD0AF4918312068884246D0AD49B7
:1045800030312068884241D0AA49483120688842A9
:104590003CD0A84960312068884237D0A54978319D
:1045A0002068884232D0A3499031206888422DD0BB
:1045B000A049A8312068884228D09F4920688842B5
:1045C00024D09D491831206888421FD09A49303143
:1045D000206888421AD0984948312068884215D00E
:1045E000954900E020E06031206888420ED0924971
:1045F00078312068884209D08F49903120688842FC
:1046000004D08D49A8312068884206D1206800680E
:1046100020F001002168086009E12068006820F0AE
:1046200001002168086002E12068006820F00E00A7
:10463000216808607F492068884249D07D49183147
:104640002068884244D07B493031206888423FD07E
:1046500078494831206888423AD0764960312068EC
:10466000884235D0734978312068884230D071490A
:104670009031206888422BD06E49A831206888424A
:1046800026D06D492068884222D06B4918312068B5
:1046900088421DD0684930312068884218D0664968
:1046A00048312068884213D06349603120688842CD
:1046B0000ED0614978312068884209D05E49903136
:1046C0002068884204D05C49A8312068884206D11D
:1046D0002068006820F001002168086005E020687B
:1046E000006820F001002168086052492068884273
:1046F00070D050491831206888426BD04D49303114
:104700002068884266D04B4948312068884261D091
:1047100048496031206888425CD046497831206839
:10472000884257D0434990312068884252D041494D
:10473000A831206888424DD03F492068884249D03E
:104740003D4918312068884244D03B4930312068C7
:1047500088423FD038494831206888423AD03649AB
:1047600060312068884235D03349783120688842EA
:1047700030D031499031206888422BD02E49A83161
:104780002068884226D02D492068884222D02B49B3
:104790001431206888421DD0284928312068884279
:1047A00018D026493C312068884213D02349503123
:1047B000206888420ED0214964312068884209D09F
:1047C0001E4978312068884204D01C498C31206809
:1047D000884201D1012000E00020D8B1206E00689D
:1047E00020F48070216E0860A56D94F85C0000F0E4
:1047F0001F01012088406860D4E919104860E06E0C
:1048000040B1E06E006820F48070E16E0860D4E989
:104810001C104860012084F8350000BF002084F897
:10482000340000BF206D10B12046216D8847002064
:104830003EE60000100002401004024008540258F6
:104840000146486D704700002DE9F84F04460020EE
:104850000090FE4800684FF41651B0FBF1FAA66DC7
:10486000D4F858803768D8F80090F9492068884211
:1048700049D0F74918312068884244D0F449303192
:10488000206888423FD0F2494831206888423AD0B7
:10489000EF4960312068884235D0ED497831206891
:1048A000884230D0EA499031206888422BD0E849CC
:1048B000A8312068884226D0E6492068884222D064
:1048C000E4491831206888421DD0E249303120681F
:1048D000884218D0DF4948312068884213D0DD492A
:1048E0006031206888420ED0DA49783120688842E9
:1048F00009D0D84990312068884204D0D549A831E0
:104900002068884201D1012000E0002000287DD0ED
:1049100094F85C0000F01F0108208840384000280F
:1049200068D0CB492068884249D0C94918312068ED
:10493000884244D0C6493031206888423FD0C449BB
:104940004831206888423AD0C149603120688842A5
:1049500035D0BF4978312068884230D0BC49903189
:10496000206888422BD0BA49A8312068884226D0D6
:10497000B8492068884222D0B64918312068884258
:104980001DD0B44930312068884218D0B14948312F
:104990002068884213D0AF496031206888420ED029
:1049A000AC4978312068884209D0AA499031206802
:1049B000884204D0A749A8312068884204D12068E1
:1049C000006800F0040003E02068006800F00800C0
:1049D00080B12068006820F004002168086094F825
:1049E0005C0000F01F0108208840B060606D40F05E
:1049F0000100606594F85C0000F01F010120884010
:104A00003840E8B392492068884200E0B7E24BD0D2
:104A10008F4918312068884246D08D49303120684E
:104A2000884241D08A494831206888423CD0884930
:104A300060312068884237D08549783120688842C3
:104A400032D083499031206888422DD08049A831E6
:104A50002068884228D07F492068884224D07D4938
:104A60001831206888421FD07A4930312068884246
:104A70001AD0784948312068884215D0754900E03D
:104A800026E06031206888420ED072497831206873
:104A9000884209D06F4990312068884204D06D491E
:104AA000A8312068884204D12068406900F0800065
:104AB00002E020680068002050B194F85C0000F02B
:104AC0001F0101208840B060606D40F00200606509
:104AD00094F85C0000F01F01042088403840E8B3DF
:104AE0005B49206888424BD0594918312068884278
:104AF00046D0574930312068884241D05449483126
:104B0000206888423CD0524960312068884237D0C2
:104B10004F4978312068884232D04D499031206821
:104B200088422DD04A49A8312068884228D0494976
:104B30002068884224D047491831206888421FD015
:104B400044493031206888421AD0424948312068AF
:104B5000884215D03F496031206800E024E0884257
:104B60000ED03C4978312068884209D039499031CB
:104B70002068884204D03749A8312068884204D18F
:104B80002068006800F0020002E020680068002051
:104B900050B194F85C0000F01F0104208840B06020
:104BA000606D40F00400606594F85C0000F01F0147
:104BB000102088403840E8B325492068884251D009
:104BC00023491831206888424CD02149303120686F
:104BD000884247D01E4948312068884242D01C494B
:104BE0006031206888423DD0194978312068884278
:104BF00038D0174990312068884233D01449A83101
:104C0000206888422ED01349206888422AD0114952
:104C100018312068884225D00E49303120688842FA
:104C200020D00C494831206888421BD009496031A6
:104C3000206800E04DE0884214D0064978312068B1
:104C400088420FD003499031206805E0100000240D
:104C50001000024010040240884203D0FE49206840
:104C6000884204D12068006800F0080003E0206852
:104C7000006800F0040060B394F85C0000F01F01CD
:104C800010208840B0602068006800F4802080B167
:104C90002068006800F4002028B9206CC8B12046C4
:104CA000216C884715E0A06C98B12046A16C88471C
:104CB0000FE02068006800F4807028B92068006860
:104CC00020F0080021680860206C10B12046216C9B
:104CD000884794F85C0000F01F012020884038408D
:104CE00000287DD0DD492068884249D0DB49183151
:104CF0002068884244D0D9493031206888423FD06A
:104D0000D6494831206888423AD0D4496031206879
:104D1000884235D0D14978312068884230D0CF4997
:104D20009031206888422BD0CC49A8312068884235
:104D300026D0C949A8392068884221D0C64990396F
:104D4000206888421CD0C44978392068884217D02E
:104D5000C14960392068884212D0BF49483920686B
:104D600088420DD0BC4930392068884208D0BA4901
:104D700018392068884203D0B7492068884204D196
:104D80002068006800F0100003E02068006800F070
:104D9000020028B394F85C0000F01F012020884036
:104DA000B06094F8350004282DD12068006820F008
:104DB0001600216808602068406920F080002168A2
:104DC0004861206C08B9A06C28B12068006820F008
:104DD00008002168086094F85C0000F01F0100E002
:104DE0003FE03F208840B060012084F8350000BFDC
:104DF000002084F8340000BF206D10B12046216DE2
:104E00008847BDE8F88F2068006800F4802080B1F2
:104E10002068006800F4002028B9606C08B32046C0
:104E2000616C88471DE0E06BD8B12046E16B884794
:104E300017E02068006800F4807068B92068006896
:104E400020F0100021680860012084F8350000BFC0
:104E5000002084F8340000BFE06B10B12046E16B05
:104E60008847606D00287AD0606D00F00100E8B3DB
:104E7000042084F835007949206888424BD077496E
:104E800018312068884246D0744930312068884201
:104E900041D072494831206888423CD06F49603126
:104EA0002068884237D06D4978312068884232D0F6
:104EB0006A499031206888422DD06849A83120681D
:104EC000884228D06449A8392068884223D06249A2
:104ED0009039206888421ED05F497839206888421E
:104EE00019D05D4960392068884200E040E012D066
:104EF00059494839206888420DD0574930392068CF
:104F0000884208D0544918392068884203D0524951
:104F10002068884206D12068006820F001002168DE
:104F2000086005E02068006820F001002168086042
:104F300000BF0098401C0090504500D905E0206853
:104F4000006800F001000028F3D100BF206800686D
:104F500000F0010020B1032084F8350003E00DE0EB
:104F6000012084F8350000BF002084F8340000BF21
:104F7000E06C002802D02046E16C8847D9E138492E
:104F80002068884222D036491431206888421DD0DA
:104F9000334928312068884218D031493C31206893
:104FA000884213D02E495031206888420ED02C49B7
:104FB00064312068884209D02949783120688842C4
:104FC00004D027498C312068884201D1012000E0BB
:104FD00000200028D2D02068056894F85C0000F01A
:104FE0001F010420884000EA0900D8B305F004003E
:104FF000C0B394F85C0000F01F0104208840C8F89A
:10500000040005F4004080B105F4803030B9A06C94
:105010000028B3D02046A16C88478AE1206C002884
:10502000ACD02046216C884783E105F02000E8BB26
:105030000A492068884253D00849183120688842BC
:105040004ED0064930312068884249D00349483162
:105050002068884244D006E0B804024010000240B4
:10506000085402584FE0B44960312068884237D074
:10507000B14978312068884232D0AF4990312068F8
:1050800088422DD0AC49A8312068884228D0AB494D
:105090002068884224D0A9491831206888421FD04E
:1050A000A6493031206888421AD000E025E0A349A3
:1050B00048312068884213D0A04960312068884276
:1050C0000ED09E4978312068884209D09B499031A2
:1050D0002068884204D09949A8312068884206D1C6
:1050E0002068006820F008002168086005E020685A
:1050F000006820F0040021680860206C10B320468E
:10510000216C884715E194F85C0000F01F01022033
:10511000884000EA0900E8B305F00200D0B394F833
:105120005C0000F01F0102208840C8F8040005F46C
:10513000004070B105F4803028B9606C10B1204691
:10514000616C8847F5E0E06BF0B32046E16B88477F
:10515000EFE005F02000C0BB7749206888424ED0C0
:10516000754918312068884249D073493031206828
:10517000884244D070494831206888423FD06E4907
:105180006031206888423AD06B4978312068884283
:1051900035D000E04EE068499031206888422ED03A
:1051A0006549A8312068884229D06449206888422E
:1051B00025D0624918312068884220D05F493031BB
:1051C000206888421BD001E06EE02DE05B49483149
:1051D0002068884213D059496031206888420ED037
:1051E000564978312068884209D054499031206866
:1051F000884204D05149A8312068884206D12068ED
:10520000006820F014002168086005E0206800684C
:1052100020F00A0021680860012084F8350000BFF2
:10522000002084F8340000BFE06BE8B32046E16B57
:1052300088477EE094F85C0000F01F010820884059
:1052400000EA090080B305F0080068B33A49206815
:1052500088424BD0384918312068884246D03649B8
:1052600030312068884241D0334948312068884233
:105270003CD0314960312068884237D02E4978319E
:105280002068884232D02C499031206888422DD045
:105290002949A8312068884228D0284920688842B6
:1052A00024D02649183100E043E0206888421DD010
:1052B000224930312068884218D02049483120687E
:1052C000884213D01D496031206888420ED01B49A6
:1052D00078312068884209D0184990312068884286
:1052E00004D01649A8312068884206D12068006899
:1052F00020F01C002168086005E02068006820F0AC
:105300000E002168086094F85C0000F01F01012085
:105310008840C8F804000120606584F8350000BFAB
:10532000002084F8340000BFE06C10B12046E16C2E
:10533000884700BF65E500001000024010040240ED
:105340002DE9F041044601F0EDFC804614B901203E
:10535000BDE8F081FE492068884249D0FC491831F7
:105360002068884244D0FA493031206888423FD0D2
:10537000F7494831206888423AD0F54960312068C1
:10538000884235D0F24978312068884230D0F049DF
:105390009031206888422BD0ED49A831206888429E
:1053A00026D0EC492068884222D0EA49183120688A
:1053B00088421DD0E74930312068884218D0E5493D
:1053C00048312068884213D0E24960312068884221
:1053D0000ED0E04978312068884209D0DD4990310B
:1053E0002068884204D0DB49A8312068884201D176
:1053F000012000E00020002873D0606A00B100BFE7
:10540000022084F8350000BF002084F8340000BF7B
:10541000CF492068884249D0CD4918312068884258
:1054200044D0CB493031206888423FD0C849483108
:10543000206888423AD0C64960312068884235D019
:10544000C34978312068884230D0C1499031206802
:1054500088422BD0BE49A8312068884226D0BD4959
:105460002068884222D0BB491831206888421DD06C
:10547000B84930312068884218D0B6494831206890
:10548000884213D0B3496031206888420ED0B149B8
:1054900078312068884209D0AE499031206888422E
:1054A00004D0AC49A8312068884206D12068006841
:1054B00020F001002168086005E02068006820F005
:1054C0000100216808600DE001F02CFCA0EB080051
:1054D000052807D920206065032084F835000120C5
:1054E00036E76AE02068006800F001000028EBD190
:1054F0002068056898480540D4E9020108432169FD
:10550000084361690843A1690843E1690843216AC6
:1055100008430543606A042803D1D4E90B0108431A
:1055200005438E4800686FF30F00B0F1005F1DD394
:105530006068292802D360682E2811D960683F2846
:1055400002D3606842280BD96068472802D360689C
:10555000482805D960684F2804D36068522801D8CC
:10556000012000E0002008B145F4801520680560A6
:105570002068456925F00705606A0543606A0428CC
:105580000DD1A06A0543E06A48B12046FDF7ACFAA8
:1055900028B140206065012084F83500D8E62068F5
:1055A00045612046FDF77CF9064694F85C0000F062
:1055B0001F013F208840B0609EE069492068884212
:1055C00022D067491431206888421DD064492831AF
:1055D0002068884218D062493C312068884213D044
:1055E0005F495031206888420ED05D49643120689F
:1055F000884209D05A4978312068884204D05849F5
:105600008C312068884201D1012000E00020E0B305
:1056100053492068884222D0514914312068884279
:105620001DD04F4928312068884218D04C493C3160
:105630002068884213D04A495031206888420ED0F1
:10564000474964312068884209D04549783120684B
:10565000884204D042498C312068884201D101201F
:1056600000E0002000B100BF022084F8350000BF38
:10567000002084F8340000BF2068056839480540E0
:10568000A068402802D1102106E02EE0A068802802
:1056900001D1C10100E00021E06841EAD0012069A8
:1056A00041EAD001606941EAD001A06941EAD00134
:1056B000E06941EAD001206A41EA10100543206800
:1056C000056027492068401A1421B0FBF1F08000E2
:1056D000E0652046FDF7E4F8074694F85C0000F02A
:1056E0001F0101208840786006E0402060650320AB
:1056F00084F8350001202BE61549206888427FD0C8
:1057000013491831206888427AD011493031206815
:10571000884275D00E4948312068884270D00C49C3
:105720006031206888426BD009497831206888420E
:1057300066D0074990312068884261D00449A83179
:10574000206888425CD003492068884258D00BE02A
:1057500010000240100402403F8010FE0010005C68
:10576000085402580F00FEFF3B4918312068884258
:1057700046D0394930312068884241D036494831D5
:10578000206888423CD0344960312068884237D054
:10579000314978312068884232D02F4990312068D1
:1057A00088422DD02C49A8312068884228D02B4926
:1057B0002068884224D029491431206888421FD0AB
:1057C00026492831206888421AD024493C31206873
:1057D000884215D0214950312068884210D01F4995
:1057E0006431206888420BD01C4978312068884297
:1057F00006D01A498C312068884200E000E001D1CF
:10580000012000E0002000B32046FDF7BFF8A068AB
:10581000802801D1002060602079216E0860D4E9E1
:1058200019104860606860B16068082809D820468F
:10583000FDF70EF90020E16E0860D4E91C10486005
:1058400003E00020E06620676067002060650120BB
:1058500084F8350000207BE510040240085402580B
:105860002DE9F04104460D4616461F464FF000084C
:1058700014B90120BDE8F08100BF94F8340001287C
:1058800001D10220F6E7012084F8340000BF94F82B
:10589000350001287ED1022084F8350000206065A3
:1058A000E4492068884249D0E2491831206888429A
:1058B00044D0E0493031206888423FD0DD4948314A
:1058C000206888423AD0DB4960312068884235D070
:1058D000D84978312068884230D0D6499031206844
:1058E00088422BD0D349A8312068884226D0D2499B
:1058F0002068884222D0D0491831206888421DD0C3
:10590000CD4930312068884218D0CB4948312068D1
:10591000884213D0C8496031206888420ED0C649F9
:1059200078312068884209D0C34990312068884284
:1059300004D0C149A8312068884206D12068006897
:1059400020F001002168086005E02068006820F070
:105950000100216808603B46324629462046FDF793
:105960001BF9B449206888424BD0B24918312068ED
:10597000884246D0AF4930312068884241D0AD4995
:105980004831206888423CD0AA496031206888426A
:1059900037D000E042E1A74978312068884230D012
:1059A000A4499031206888422BD0A249A8312068B0
:1059B000884226D0A0492068884222D09E491831CA
:1059C000206888421DD09C4930312068884218D018
:1059D000994948312068884213D09749603120683E
:1059E00088420ED0944978312068884209D0924983
:1059F00090312068884204D08F49A83120688842BD
:105A000001D1012000E0002080B12068006820F072
:105A10001E0040F0160021680860206CB0B12068BC
:105A2000006840F00800216808600FE02068006806
:105A300020F00E0040F00A0021680860206C28B1B8
:105A40002068006840F004002168086079492068F7
:105A5000884270D077491831206888426BD07549E8
:105A600030312068884266D07249483120688842C7
:105A700061D070496031206888425CD06D497831CE
:105A80002068884257D06B4990312068884252D0B4
:105A90006849A831206888424DD06749206888420B
:105AA00049D0654918312068884244D06249303174
:105AB000206888423FD060494831206888423AD007
:105AC0005D4960312068884235D05B497831206873
:105AD000884230D058499031206888422BD05649AE
